{
  "_format": "hh-sol-artifact-1",
  "contractName": "EverGuardCapsules",
  "sourceName": "contracts/EverGuardCapsules.sol",
  "abi": [
    {
      "inputs": [],
      "stateMutability": "nonpayable",
      "type": "constructor"
    },
    {
      "anonymous": false,
      "inputs": [
        {
          "indexed": true,
          "internalType": "uint256",
          "name": "burstId",
          "type": "uint256"
        },
        {
          "indexed": true,
          "internalType": "uint256",
          "name": "capsuleId",
          "type": "uint256"
        },
        {
          "indexed": true,
          "internalType": "address",
          "name": "accessor",
          "type": "address"
        },
        {
          "indexed": false,
          "internalType": "uint256",
          "name": "consumedAt",
          "type": "uint256"
        }
      ],
      "name": "BurstKeyConsumed",
      "type": "event"
    },
    {
      "anonymous": false,
      "inputs": [
        {
          "indexed": true,
          "internalType": "uint256",
          "name": "burstId",
          "type": "uint256"
        },
        {
          "indexed": true,
          "internalType": "uint256",
          "name": "capsuleId",
          "type": "uint256"
        },
        {
          "indexed": true,
          "internalType": "address",
          "name": "accessor",
          "type": "address"
        },
        {
          "indexed": false,
          "internalType": "uint256",
          "name": "expiresAt",
          "type": "uint256"
        },
        {
          "indexed": false,
          "internalType": "string",
          "name": "contextHash",
          "type": "string"
        }
      ],
      "name": "BurstKeyIssued",
      "type": "event"
    },
    {
      "anonymous": false,
      "inputs": [
        {
          "indexed": true,
          "internalType": "uint256",
          "name": "id",
          "type": "uint256"
        },
        {
          "indexed": false,
          "internalType": "string",
          "name": "capsuleHash",
          "type": "string"
        },
        {
          "indexed": false,
          "internalType": "string",
          "name": "capsuleType",
          "type": "string"
        },
        {
          "indexed": true,
          "internalType": "address",
          "name": "owner",
          "type": "address"
        },
        {
          "indexed": false,
          "internalType": "uint256",
          "name": "timestamp",
          "type": "uint256"
        }
      ],
      "name": "CapsuleCreated",
      "type": "event"
    },
    {
      "anonymous": false,
      "inputs": [
        {
          "indexed": true,
          "internalType": "uint256",
          "name": "capsuleId",
          "type": "uint256"
        },
        {
          "indexed": true,
          "internalType": "address",
          "name": "owner",
          "type": "address"
        }
      ],
      "name": "CapsuleRevoked",
      "type": "event"
    },
    {
      "inputs": [
        {
          "internalType": "uint256",
          "name": "",
          "type": "uint256"
        }
      ],
      "name": "burstKeys",
      "outputs": [
        {
          "internalType": "uint256",
          "name": "burstId",
          "type": "uint256"
        },
        {
          "internalType": "uint256",
          "name": "capsuleId",
          "type": "uint256"
        },
        {
          "internalType": "address",
          "name": "accessor",
          "type": "address"
        },
        {
          "internalType": "uint256",
          "name": "issuedAt",
          "type": "uint256"
        },
        {
          "internalType": "uint256",
          "name": "expiresAt",
          "type": "uint256"
        },
        {
          "internalType": "bool",
          "name": "consumed",
          "type": "bool"
        },
        {
          "internalType": "string",
          "name": "contextHash",
          "type": "string"
        }
      ],
      "stateMutability": "view",
      "type": "function"
    },
    {
      "inputs": [
        {
          "internalType": "uint256",
          "name": "",
          "type": "uint256"
        },
        {
          "internalType": "uint256",
          "name": "",
          "type": "uint256"
        }
      ],
      "name": "capsuleAccessLog",
      "outputs": [
        {
          "internalType": "uint256",
          "name": "",
          "type": "uint256"
        }
      ],
      "stateMutability": "view",
      "type": "function"
    },
    {
      "inputs": [
        {
          "internalType": "uint256",
          "name": "",
          "type": "uint256"
        }
      ],
      "name": "capsules",
      "outputs": [
        {
          "internalType": "uint256",
          "name": "id",
          "type": "uint256"
        },
        {
          "internalType": "string",
          "name": "capsuleHash",
          "type": "string"
        },
        {
          "internalType": "uint256",
          "name": "timestamp",
          "type": "uint256"
        },
        {
          "internalType": "string",
          "name": "capsuleType",
          "type": "string"
        },
        {
          "internalType": "address",
          "name": "owner",
          "type": "address"
        },
        {
          "internalType": "enum EverGuardCapsules.CapsuleStatus",
          "name": "status",
          "type": "uint8"
        }
      ],
      "stateMutability": "view",
      "type": "function"
    },
    {
      "inputs": [
        {
          "internalType": "uint256",
          "name": "_burstId",
          "type": "uint256"
        }
      ],
      "name": "consumeBurstKey",
      "outputs": [],
      "stateMutability": "nonpayable",
      "type": "function"
    },
    {
      "inputs": [
        {
          "internalType": "string",
          "name": "_capsuleHash",
          "type": "string"
        },
        {
          "internalType": "string",
          "name": "_capsuleType",
          "type": "string"
        }
      ],
      "name": "createCapsule",
      "outputs": [
        {
          "internalType": "uint256",
          "name": "",
          "type": "uint256"
        }
      ],
      "stateMutability": "nonpayable",
      "type": "function"
    },
    {
      "inputs": [
        {
          "internalType": "uint256",
          "name": "_burstId",
          "type": "uint256"
        }
      ],
      "name": "getBurstKey",
      "outputs": [
        {
          "components": [
            {
              "internalType": "uint256",
              "name": "burstId",
              "type": "uint256"
            },
            {
              "internalType": "uint256",
              "name": "capsuleId",
              "type": "uint256"
            },
            {
              "internalType": "address",
              "name": "accessor",
              "type": "address"
            },
            {
              "internalType": "uint256",
              "name": "issuedAt",
              "type": "uint256"
            },
            {
              "internalType": "uint256",
              "name": "expiresAt",
              "type": "uint256"
            },
            {
              "internalType": "bool",
              "name": "consumed",
              "type": "bool"
            },
            {
              "internalType": "string",
              "name": "contextHash",
              "type": "string"
            }
          ],
          "internalType": "struct EverGuardCapsules.BurstKeyAccess",
          "name": "",
          "type": "tuple"
        }
      ],
      "stateMutability": "view",
      "type": "function"
    },
    {
      "inputs": [],
      "name": "getBurstKeyCount",
      "outputs": [
        {
          "internalType": "uint256",
          "name": "",
          "type": "uint256"
        }
      ],
      "stateMutability": "view",
      "type": "function"
    },
    {
      "inputs": [
        {
          "internalType": "uint256",
          "name": "_id",
          "type": "uint256"
        }
      ],
      "name": "getCapsule",
      "outputs": [
        {
          "components": [
            {
              "internalType": "uint256",
              "name": "id",
              "type": "uint256"
            },
            {
              "internalType": "string",
              "name": "capsuleHash",
              "type": "string"
            },
            {
              "internalType": "uint256",
              "name": "timestamp",
              "type": "uint256"
            },
            {
              "internalType": "string",
              "name": "capsuleType",
              "type": "string"
            },
            {
              "internalType": "address",
              "name": "owner",
              "type": "address"
            },
            {
              "internalType": "enum EverGuardCapsules.CapsuleStatus",
              "name": "status",
              "type": "uint8"
            }
          ],
          "internalType": "struct EverGuardCapsules.Capsule",
          "name": "",
          "type": "tuple"
        }
      ],
      "stateMutability": "view",
      "type": "function"
    },
    {
      "inputs": [
        {
          "internalType": "uint256",
          "name": "_capsuleId",
          "type": "uint256"
        }
      ],
      "name": "getCapsuleAccessLog",
      "outputs": [
        {
          "internalType": "uint256[]",
          "name": "",
          "type": "uint256[]"
        }
      ],
      "stateMutability": "view",
      "type": "function"
    },
    {
      "inputs": [],
      "name": "getCapsuleCount",
      "outputs": [
        {
          "internalType": "uint256",
          "name": "",
          "type": "uint256"
        }
      ],
      "stateMutability": "view",
      "type": "function"
    },
    {
      "inputs": [],
      "name": "getStats",
      "outputs": [
        {
          "internalType": "uint256",
          "name": "totalCaps",
          "type": "uint256"
        },
        {
          "internalType": "uint256",
          "name": "totalBursts",
          "type": "uint256"
        },
        {
          "internalType": "uint256",
          "name": "activeCaps",
          "type": "uint256"
        }
      ],
      "stateMutability": "view",
      "type": "function"
    },
    {
      "inputs": [
        {
          "internalType": "address",
          "name": "_user",
          "type": "address"
        }
      ],
      "name": "getUserCapsules",
      "outputs": [
        {
          "internalType": "uint256[]",
          "name": "",
          "type": "uint256[]"
        }
      ],
      "stateMutability": "view",
      "type": "function"
    },
    {
      "inputs": [
        {
          "internalType": "uint256",
          "name": "_burstId",
          "type": "uint256"
        }
      ],
      "name": "isBurstKeyValid",
      "outputs": [
        {
          "internalType": "bool",
          "name": "",
          "type": "bool"
        }
      ],
      "stateMutability": "view",
      "type": "function"
    },
    {
      "inputs": [
        {
          "internalType": "uint256",
          "name": "_capsuleId",
          "type": "uint256"
        },
        {
          "internalType": "address",
          "name": "_accessor",
          "type": "address"
        },
        {
          "internalType": "uint256",
          "name": "_expiresAt",
          "type": "uint256"
        },
        {
          "internalType": "string",
          "name": "_contextHash",
          "type": "string"
        }
      ],
      "name": "issueBurstKey",
      "outputs": [
        {
          "internalType": "uint256",
          "name": "",
          "type": "uint256"
        }
      ],
      "stateMutability": "nonpayable",
      "type": "function"
    },
    {
      "inputs": [],
      "name": "owner",
      "outputs": [
        {
          "internalType": "address",
          "name": "",
          "type": "address"
        }
      ],
      "stateMutability": "view",
      "type": "function"
    },
    {
      "inputs": [
        {
          "internalType": "uint256",
          "name": "_capsuleId",
          "type": "uint256"
        }
      ],
      "name": "revokeCapsule",
      "outputs": [],
      "stateMutability": "nonpayable",
      "type": "function"
    },
    {
      "inputs": [],
      "name": "totalBurstKeys",
      "outputs": [
        {
          "internalType": "uint256",
          "name": "",
          "type": "uint256"
        }
      ],
      "stateMutability": "view",
      "type": "function"
    },
    {
      "inputs": [],
      "name": "totalCapsules",
      "outputs": [
        {
          "internalType": "uint256",
          "name": "",
          "type": "uint256"
        }
      ],
      "stateMutability": "view",
      "type": "function"
    },
    {
      "inputs": [
        {
          "internalType": "address",
          "name": "",
          "type": "address"
        },
        {
          "internalType": "uint256",
          "name": "",
          "type": "uint256"
        }
      ],
      "name": "userCapsules",
      "outputs": [
        {
          "internalType": "uint256",
          "name": "",
          "type": "uint256"
        }
      ],
      "stateMutability": "view",
      "type": "function"
    }
  ],
  "bytecode": "0x608060405234801561001057600080fd5b5033600460006101000a81548173ffffffffffffffffffffffffffffffffffffffff021916908373ffffffffffffffffffffffffffffffffffffffff16021790555060006005819055506000600681905550612b80806100716000396000f3fe608060405234801561001057600080fd5b50600436106101215760003560e01c8063a0d79fb5116100ad578063c59d484711610071578063c59d48471461036f578063df2321601461038f578063ec8424d1146103bf578063edd60a21146103f5578063fdd878bf1461041157610121565b8063a0d79fb5146102b7578063a2e1dba1146102e7578063b0b7922d14610317578063b40fd31914610335578063b49ce17f1461035157610121565b80633aac3858116100f45780633aac3858146101d4578063517bbf461461020457806378051e68146102395780638a1ca7b3146102695780638da5cb5b1461029957610121565b80630b443b23146101265780632b4f7e7c146101565780632d0e969d14610174578063366636f7146101a4575b600080fd5b610140600480360381019061013b9190611a3d565b61042f565b60405161014d9190611c01565b60405180910390f35b61015e6105dd565b60405161016b9190611c32565b60405180910390f35b61018e60048036038101906101899190611d82565b6105e9565b60405161019b9190611c32565b60405180910390f35b6101be60048036038101906101b99190611e26565b61080f565b6040516101cb9190611f02565b60405180910390f35b6101ee60048036038101906101e99190611a3d565b6108a6565b6040516101fb919061202b565b60405180910390f35b61021e60048036038101906102199190611a3d565b610af4565b604051610230969594939291906120b5565b60405180910390f35b610253600480360381019061024e9190611a3d565b610c7d565b6040516102609190612133565b60405180910390f35b610283600480360381019061027e9190611a3d565b610e0f565b6040516102909190611f02565b60405180910390f35b6102a1610ec3565b6040516102ae919061214e565b60405180910390f35b6102d160048036038101906102cc9190612169565b610ee9565b6040516102de9190611c32565b60405180910390f35b61030160048036038101906102fc91906121a9565b610f1a565b60405161030e9190611c32565b60405180910390f35b61031f61128d565b60405161032c9190611c32565b60405180910390f35b61034f600480360381019061034a9190611a3d565b611293565b005b61035961151d565b6040516103669190611c32565b60405180910390f35b610377611523565b6040516103869392919061222c565b60405180910390f35b6103a960048036038101906103a49190612263565b6115d1565b6040516103b69190611c32565b60405180910390f35b6103d960048036038101906103d49190611a3d565b611602565b6040516103ec97969594939291906122a3565b60405180910390f35b61040f600480360381019061040a9190611a3d565b611709565b005b610419611933565b6040516104269190611c32565b60405180910390f35b610437611940565b600180549050821061047e576040517f08c379a000000000000000000000000000000000000000000000000000000000815260040161047590612365565b60405180910390fd5b6001828154811061049257610491612385565b5b90600052602060002090600702016040518060e001604052908160008201548152602001600182015481526020016002820160009054906101000a900473ffffffffffffffffffffffffffffffffffffffff1673ffffffffffffffffffffffffffffffffffffffff1673ffffffffffffffffffffffffffffffffffffffff16815260200160038201548152602001600482015481526020016005820160009054906101000a900460ff16151515158152602001600682018054610554906123e3565b80601f0160208091040260200160405190810160405280929190818152602001828054610580906123e3565b80156105cd5780601f106105a2576101008083540402835291602001916105cd565b820191906000526020600020905b8154815290600101906020018083116105b057829003601f168201915b5050505050815250509050919050565b60008080549050905090565b600080600080549050905060006040518060c001604052808381526020018681526020014281526020018581526020013373ffffffffffffffffffffffffffffffffffffffff1681526020016000600181111561064957610648611f24565b5b8152509050600081908060018154018082558091505060019003906000526020600020906005020160009091909190915060008201518160000155602082015181600101908161069991906125c0565b506040820151816002015560608201518160030190816106b991906125c0565b5060808201518160040160006101000a81548173ffffffffffffffffffffffffffffffffffffffff021916908373ffffffffffffffffffffffffffffffffffffffff16021790555060a08201518160040160146101000a81548160ff0219169083600181111561072c5761072b611f24565b5b02179055505050600260003373ffffffffffffffffffffffffffffffffffffffff1673ffffffffffffffffffffffffffffffffffffffff168152602001908152602001600020829080600181540180825580915050600190039060005260206000200160009091909190915055600560008154809291906107ac906126c1565b91905055503373ffffffffffffffffffffffffffffffffffffffff16827f7c8549e4b0c901cb13d3ff32f76902fcd0794d0c1e3b4754bc0e63f1686d4b808787426040516107fc93929190612709565b60405180910390a3819250505092915050565b6060600260008373ffffffffffffffffffffffffffffffffffffffff1673ffffffffffffffffffffffffffffffffffffffff16815260200190815260200160002080548060200260200160405190810160405280929190818152602001828054801561089a57602002820191906000526020600020905b815481526020019060010190808311610886575b50505050509050919050565b6108ae611995565b8160008054905081106108f6576040517f08c379a00000000000000000000000000000000000000000000000000000000081526004016108ed9061279a565b60405180910390fd5b6000838154811061090a57610909612385565b5b90600052602060002090600502016040518060c00160405290816000820154815260200160018201805461093d906123e3565b80601f0160208091040260200160405190810160405280929190818152602001828054610969906123e3565b80156109b65780601f1061098b576101008083540402835291602001916109b6565b820191906000526020600020905b81548152906001019060200180831161099957829003601f168201915b50505050508152602001600282015481526020016003820180546109d9906123e3565b80601f0160208091040260200160405190810160405280929190818152602001828054610a05906123e3565b8015610a525780601f10610a2757610100808354040283529160200191610a52565b820191906000526020600020905b815481529060010190602001808311610a3557829003601f168201915b505050505081526020016004820160009054906101000a900473ffffffffffffffffffffffffffffffffffffffff1673ffffffffffffffffffffffffffffffffffffffff1673ffffffffffffffffffffffffffffffffffffffff1681526020016004820160149054906101000a900460ff166001811115610ad657610ad5611f24565b5b6001811115610ae857610ae7611f24565b5b81525050915050919050565b60008181548110610b0457600080fd5b9060005260206000209060050201600091509050806000015490806001018054610b2d906123e3565b80601f0160208091040260200160405190810160405280929190818152602001828054610b59906123e3565b8015610ba65780601f10610b7b57610100808354040283529160200191610ba6565b820191906000526020600020905b815481529060010190602001808311610b8957829003601f168201915b505050505090806002015490806003018054610bc1906123e3565b80601f0160208091040260200160405190810160405280929190818152602001828054610bed906123e3565b8015610c3a5780601f10610c0f57610100808354040283529160200191610c3a565b820191906000526020600020905b815481529060010190602001808311610c1d57829003601f168201915b5050505050908060040160009054906101000a900473ffffffffffffffffffffffffffffffffffffffff16908060040160149054906101000a900460ff16905086565b60006001805490508210610c945760009050610e0a565b600060018381548110610caa57610ca9612385565b5b90600052602060002090600702016040518060e001604052908160008201548152602001600182015481526020016002820160009054906101000a900473ffffffffffffffffffffffffffffffffffffffff1673ffffffffffffffffffffffffffffffffffffffff1673ffffffffffffffffffffffffffffffffffffffff16815260200160038201548152602001600482015481526020016005820160009054906101000a900460ff16151515158152602001600682018054610d6c906123e3565b80601f0160208091040260200160405190810160405280929190818152602001828054610d98906123e3565b8015610de55780601f10610dba57610100808354040283529160200191610de5565b820191906000526020600020905b815481529060010190602001808311610dc857829003601f168201915b50505050508152505090508060a00151158015610e06575080608001514211155b9150505b919050565b6060816000805490508110610e59576040517f08c379a0000000000000000000000000000000000000000000000000000000008152600401610e509061279a565b60405180910390fd5b60036000848152602001908152602001600020805480602002602001604051908101604052809291908181526020018280548015610eb657602002820191906000526020600020905b815481526020019060010190808311610ea2575b5050505050915050919050565b600460009054906101000a900473ffffffffffffffffffffffffffffffffffffffff1681565b60026020528160005260406000208181548110610f0557600080fd5b90600052602060002001600091509150505481565b6000846000805490508110610f64576040517f08c379a0000000000000000000000000000000000000000000000000000000008152600401610f5b9061279a565b60405180910390fd5b60006001811115610f7857610f77611f24565b5b60008781548110610f8c57610f8b612385565b5b906000526020600020906005020160040160149054906101000a900460ff166001811115610fbd57610fbc611f24565b5b14610ffd576040517f08c379a0000000000000000000000000000000000000000000000000000000008152600401610ff490612806565b60405180910390fd5b42841161103f576040517f08c379a000000000000000000000000000000000000000000000000000000000815260040161103690612872565b60405180910390fd5b600073ffffffffffffffffffffffffffffffffffffffff168573ffffffffffffffffffffffffffffffffffffffff16036110ae576040517f08c379a00000000000000000000000000000000000000000000000000000000081526004016110a5906128de565b60405180910390fd5b6000600180549050905060006040518060e001604052808381526020018981526020018873ffffffffffffffffffffffffffffffffffffffff1681526020014281526020018781526020016000151581526020018681525090506001819080600181540180825580915050600190039060005260206000209060070201600090919091909150600082015181600001556020820151816001015560408201518160020160006101000a81548173ffffffffffffffffffffffffffffffffffffffff021916908373ffffffffffffffffffffffffffffffffffffffff160217905550606082015181600301556080820151816004015560a08201518160050160006101000a81548160ff02191690831515021790555060c08201518160060190816111d891906125c0565b5050506003600089815260200190815260200160002082908060018154018082558091505060019003906000526020600020016000909190919091505560066000815480929190611228906126c1565b91905055508673ffffffffffffffffffffffffffffffffffffffff1688837fefaa1212c7d96fdacc9224c0a443a62cd8bdf1fd2044c09ff4d0fab878ca93e089896040516112779291906128fe565b60405180910390a4819350505050949350505050565b60065481565b60018054905081106112da576040517f08c379a00000000000000000000000000000000000000000000000000000000081526004016112d190612365565b60405180910390fd5b600181815481106112ee576112ed612385565b5b906000526020600020906007020160050160009054906101000a900460ff161561134d576040517f08c379a00000000000000000000000000000000000000000000000000000000081526004016113449061297a565b60405180910390fd5b6001818154811061136157611360612385565b5b9060005260206000209060070201600401544211156113b5576040517f08c379a00000000000000000000000000000000000000000000000000000000081526004016113ac906129e6565b60405180910390fd5b600181815481106113c9576113c8612385565b5b906000526020600020906007020160020160009054906101000a900473ffffffffffffffffffffffffffffffffffffffff1673ffffffffffffffffffffffffffffffffffffffff163373ffffffffffffffffffffffffffffffffffffffff1614611468576040517f08c379a000000000000000000000000000000000000000000000000000000000815260040161145f90612a52565b60405180910390fd5b600180828154811061147d5761147c612385565b5b906000526020600020906007020160050160006101000a81548160ff0219169083151502179055503373ffffffffffffffffffffffffffffffffffffffff16600182815481106114d0576114cf612385565b5b906000526020600020906007020160010154827fc88e81e1bb470caf83ec83dfdbc075f15cf5e9b38c421cc3d87d1c08e31a556f426040516115129190611c32565b60405180910390a450565b60055481565b6000806000806000905060005b6000805490508110156115bd576000600181111561155157611550611f24565b5b6000828154811061156557611564612385565b5b906000526020600020906005020160040160149054906101000a900460ff16600181111561159657611595611f24565b5b036115aa5781806115a6906126c1565b9250505b80806115b5906126c1565b915050611530565b506005546006548293509350935050909192565b600360205281600052604060002081815481106115ed57600080fd5b90600052602060002001600091509150505481565b6001818154811061161257600080fd5b90600052602060002090600702016000915090508060000154908060010154908060020160009054906101000a900473ffffffffffffffffffffffffffffffffffffffff16908060030154908060040154908060050160009054906101000a900460ff1690806006018054611686906123e3565b80601f01602080910402602001604051908101604052809291908181526020018280546116b2906123e3565b80156116ff5780601f106116d4576101008083540402835291602001916116ff565b820191906000526020600020905b8154815290600101906020018083116116e257829003601f168201915b5050505050905087565b806000805490508110611751576040517f08c379a00000000000000000000000000000000000000000000000000000000081526004016117489061279a565b60405180910390fd5b3373ffffffffffffffffffffffffffffffffffffffff166000828154811061177c5761177b612385565b5b906000526020600020906005020160040160009054906101000a900473ffffffffffffffffffffffffffffffffffffffff1673ffffffffffffffffffffffffffffffffffffffff1614611804576040517f08c379a00000000000000000000000000000000000000000000000000000000081526004016117fb90612abe565b60405180910390fd5b6000600181111561181857611817611f24565b5b6000838154811061182c5761182b612385565b5b906000526020600020906005020160040160149054906101000a900460ff16600181111561185d5761185c611f24565b5b1461189d576040517f08c379a000000000000000000000000000000000000000000000000000000000815260040161189490612b2a565b60405180910390fd5b6001600083815481106118b3576118b2612385565b5b906000526020600020906005020160040160146101000a81548160ff021916908360018111156118e6576118e5611f24565b5b02179055503373ffffffffffffffffffffffffffffffffffffffff16827f547c599da90dfe3c03a8e29af70b992f1cd7464455fbb79eb8612fdb47479a7b60405160405180910390a35050565b6000600180549050905090565b6040518060e001604052806000815260200160008152602001600073ffffffffffffffffffffffffffffffffffffffff1681526020016000815260200160008152602001600015158152602001606081525090565b6040518060c0016040528060008152602001606081526020016000815260200160608152602001600073ffffffffffffffffffffffffffffffffffffffff168152602001600060018111156119ed576119ec611f24565b5b81525090565b6000604051905090565b600080fd5b600080fd5b6000819050919050565b611a1a81611a07565b8114611a2557600080fd5b50565b600081359050611a3781611a11565b92915050565b600060208284031215611a5357611a526119fd565b5b6000611a6184828501611a28565b91505092915050565b611a7381611a07565b82525050565b600073ffffffffffffffffffffffffffffffffffffffff82169050919050565b6000611aa482611a79565b9050919050565b611ab481611a99565b82525050565b60008115159050919050565b611acf81611aba565b82525050565b600081519050919050565b600082825260208201905092915050565b60005b83811015611b0f578082015181840152602081019050611af4565b60008484015250505050565b6000601f19601f8301169050919050565b6000611b3782611ad5565b611b418185611ae0565b9350611b51818560208601611af1565b611b5a81611b1b565b840191505092915050565b600060e083016000830151611b7d6000860182611a6a565b506020830151611b906020860182611a6a565b506040830151611ba36040860182611aab565b506060830151611bb66060860182611a6a565b506080830151611bc96080860182611a6a565b5060a0830151611bdc60a0860182611ac6565b5060c083015184820360c0860152611bf48282611b2c565b9150508091505092915050565b60006020820190508181036000830152611c1b8184611b65565b905092915050565b611c2c81611a07565b82525050565b6000602082019050611c476000830184611c23565b92915050565b600080fd5b600080fd5b7f4e487b7100000000000000000000000000000000000000000000000000000000600052604160045260246000fd5b611c8f82611b1b565b810181811067ffffffffffffffff82111715611cae57611cad611c57565b5b80604052505050565b6000611cc16119f3565b9050611ccd8282611c86565b919050565b600067ffffffffffffffff821115611ced57611cec611c57565b5b611cf682611b1b565b9050602081019050919050565b82818337600083830152505050565b6000611d25611d2084611cd2565b611cb7565b905082815260208101848484011115611d4157611d40611c52565b5b611d4c848285611d03565b509392505050565b600082601f830112611d6957611d68611c4d565b5b8135611d79848260208601611d12565b91505092915050565b60008060408385031215611d9957611d986119fd565b5b600083013567ffffffffffffffff811115611db757611db6611a02565b5b611dc385828601611d54565b925050602083013567ffffffffffffffff811115611de457611de3611a02565b5b611df085828601611d54565b9150509250929050565b611e0381611a99565b8114611e0e57600080fd5b50565b600081359050611e2081611dfa565b92915050565b600060208284031215611e3c57611e3b6119fd565b5b6000611e4a84828501611e11565b91505092915050565b600081519050919050565b600082825260208201905092915050565b6000819050602082019050919050565b6000611e8b8383611a6a565b60208301905092915050565b6000602082019050919050565b6000611eaf82611e53565b611eb98185611e5e565b9350611ec483611e6f565b8060005b83811015611ef5578151611edc8882611e7f565b9750611ee783611e97565b925050600181019050611ec8565b5085935050505092915050565b60006020820190508181036000830152611f1c8184611ea4565b905092915050565b7f4e487b7100000000000000000000000000000000000000000000000000000000600052602160045260246000fd5b60028110611f6457611f63611f24565b5b50565b6000819050611f7582611f53565b919050565b6000611f8582611f67565b9050919050565b611f9581611f7a565b82525050565b600060c083016000830151611fb36000860182611a6a565b5060208301518482036020860152611fcb8282611b2c565b9150506040830151611fe06040860182611a6a565b5060608301518482036060860152611ff88282611b2c565b915050608083015161200d6080860182611aab565b5060a083015161202060a0860182611f8c565b508091505092915050565b600060208201905081810360008301526120458184611f9b565b905092915050565b600082825260208201905092915050565b600061206982611ad5565b612073818561204d565b9350612083818560208601611af1565b61208c81611b1b565b840191505092915050565b6120a081611a99565b82525050565b6120af81611f7a565b82525050565b600060c0820190506120ca6000830189611c23565b81810360208301526120dc818861205e565b90506120eb6040830187611c23565b81810360608301526120fd818661205e565b905061210c6080830185612097565b61211960a08301846120a6565b979650505050505050565b61212d81611aba565b82525050565b60006020820190506121486000830184612124565b92915050565b60006020820190506121636000830184612097565b92915050565b600080604083850312156121805761217f6119fd565b5b600061218e85828601611e11565b925050602061219f85828601611a28565b9150509250929050565b600080600080608085870312156121c3576121c26119fd565b5b60006121d187828801611a28565b94505060206121e287828801611e11565b93505060406121f387828801611a28565b925050606085013567ffffffffffffffff81111561221457612213611a02565b5b61222087828801611d54565b91505092959194509250565b60006060820190506122416000830186611c23565b61224e6020830185611c23565b61225b6040830184611c23565b949350505050565b6000806040838503121561227a576122796119fd565b5b600061228885828601611a28565b925050602061229985828601611a28565b9150509250929050565b600060e0820190506122b8600083018a611c23565b6122c56020830189611c23565b6122d26040830188612097565b6122df6060830187611c23565b6122ec6080830186611c23565b6122f960a0830185612124565b81810360c083015261230b818461205e565b905098975050505050505050565b7f42757273744b657920646f6573206e6f74206578697374000000000000000000600082015250565b600061234f60178361204d565b915061235a82612319565b602082019050919050565b6000602082019050818103600083015261237e81612342565b9050919050565b7f4e487b7100000000000000000000000000000000000000000000000000000000600052603260045260246000fd5b7f4e487b7100000000000000000000000000000000000000000000000000000000600052602260045260246000fd5b600060028204905060018216806123fb57607f821691505b60208210810361240e5761240d6123b4565b5b50919050565b60008190508160005260206000209050919050565b60006020601f8301049050919050565b600082821b905092915050565b6000600883026124767fffffffffffffffffffffffffffffffffffffffffffffffffffffffffffffffff82612439565b6124808683612439565b95508019841693508086168417925050509392505050565b6000819050919050565b60006124bd6124b86124b384611a07565b612498565b611a07565b9050919050565b6000819050919050565b6124d7836124a2565b6124eb6124e3826124c4565b848454612446565b825550505050565b600090565b6125006124f3565b61250b8184846124ce565b505050565b5b8181101561252f576125246000826124f8565b600181019050612511565b5050565b601f8211156125745761254581612414565b61254e84612429565b8101602085101561255d578190505b61257161256985612429565b830182612510565b50505b505050565b600082821c905092915050565b600061259760001984600802612579565b1980831691505092915050565b60006125b08383612586565b9150826002028217905092915050565b6125c982611ad5565b67ffffffffffffffff8111156125e2576125e1611c57565b5b6125ec82546123e3565b6125f7828285612533565b600060209050601f83116001811461262a5760008415612618578287015190505b61262285826125a4565b86555061268a565b601f19841661263886612414565b60005b828110156126605784890151825560018201915060208501945060208101905061263b565b8683101561267d5784890151612679601f891682612586565b8355505b6001600288020188555050505b505050505050565b7f4e487b7100000000000000000000000000000000000000000000000000000000600052601160045260246000fd5b60006126cc82611a07565b91507fffffffffffffffffffffffffffffffffffffffffffffffffffffffffffffffff82036126fe576126fd612692565b5b600182019050919050565b60006060820190508181036000830152612723818661205e565b90508181036020830152612737818561205e565b90506127466040830184611c23565b949350505050565b7f43617073756c6520646f6573206e6f7420657869737400000000000000000000600082015250565b600061278460168361204d565b915061278f8261274e565b602082019050919050565b600060208201905081810360008301526127b381612777565b9050919050565b7f43617073756c65206e6f74206163746976650000000000000000000000000000600082015250565b60006127f060128361204d565b91506127fb826127ba565b602082019050919050565b6000602082019050818103600083015261281f816127e3565b9050919050565b7f457870697279206d75737420626520696e206675747572650000000000000000600082015250565b600061285c60188361204d565b915061286782612826565b602082019050919050565b6000602082019050818103600083015261288b8161284f565b9050919050565b7f496e76616c6964206163636573736f7220616464726573730000000000000000600082015250565b60006128c860188361204d565b91506128d382612892565b602082019050919050565b600060208201905081810360008301526128f7816128bb565b9050919050565b60006040820190506129136000830185611c23565b8181036020830152612925818461205e565b90509392505050565b7f42757273744b657920616c726561647920636f6e73756d656400000000000000600082015250565b600061296460198361204d565b915061296f8261292e565b602082019050919050565b6000602082019050818103600083015261299381612957565b9050919050565b7f42757273744b6579206578706972656400000000000000000000000000000000600082015250565b60006129d060108361204d565b91506129db8261299a565b602082019050919050565b600060208201905081810360008301526129ff816129c3565b9050919050565b7f4e6f7420617574686f72697a6564206163636573736f72000000000000000000600082015250565b6000612a3c60178361204d565b9150612a4782612a06565b602082019050919050565b60006020820190508181036000830152612a6b81612a2f565b9050919050565b7f4e6f742063617073756c65206f776e6572000000000000000000000000000000600082015250565b6000612aa860118361204d565b9150612ab382612a72565b602082019050919050565b60006020820190508181036000830152612ad781612a9b565b9050919050565b7f416c7265616479207265766f6b65640000000000000000000000000000000000600082015250565b6000612b14600f8361204d565b9150612b1f82612ade565b602082019050919050565b60006020820190508181036000830152612b4381612b07565b905091905056fea264697066735822122084aa84d5c7dc68d6703e9c952c264c67e57d8a03b49d09331ecf446c04d00a2764736f6c63430008130033",
  "linkReferences": {},
  "deployedLinkReferences": {}
}